{
  "contractName": "General",
  "abi": [
    {
      "inputs": [],
      "payable": false,
      "stateMutability": "nonpayable",
      "type": "constructor"
    },
    {
      "constant": true,
      "inputs": [],
      "name": "showBlockNum",
      "outputs": [
        {
          "name": "",
          "type": "uint256"
        }
      ],
      "payable": false,
      "stateMutability": "view",
      "type": "function"
    },
    {
      "constant": true,
      "inputs": [],
      "name": "showMyEth",
      "outputs": [
        {
          "name": "",
          "type": "uint256"
        }
      ],
      "payable": false,
      "stateMutability": "view",
      "type": "function"
    }
  ],
  "bytecode": "0x6060604052341561000f57600080fd5b60ed8061001d6000396000f3006060604052600436106049576000357c0100000000000000000000000000000000000000000000000000000000900463ffffffff168063b2445e9014604e578063cc9b2a0c146074575b600080fd5b3415605857600080fd5b605e609a565b6040518082815260200191505060405180910390f35b3415607e57600080fd5b608460b9565b6040518082815260200191505060405180910390f35b60003373ffffffffffffffffffffffffffffffffffffffff1631905090565b6000439050905600a165627a7a723058206d4d79d8cca7994a217008404cd5585ef7e64b4b10e2322158d02e71ada3e8a60029",
  "source": "pragma solidity ^0.4.8;\n\ncontract General {\n\n    function General() public {}\n\n    function showBlockNum() view public returns (uint256){\n        return block.number;\n    }\n\n    function showMyEth() view public returns (uint256){\n        return msg.sender.balance;\n    }\n}\n\n\n\n\n\n\n",
  "sourcePath": "/Users/valeria/qwerty/pr1/contracts/General.sol",
  "compiler": {
    "name": "solc",
    "version": "0.4.21+commit.dfe3193c.Emscripten.clang"
  },
  "schemaVersion": "2.0.0",
  "updatedAt": "2018-04-10T12:31:18.504Z"
}